:100000000C943E010C9466010C9466010C946601FC
:100010000C9466010C9466010C9466010C946601C4
:100020000C9466010C9466010C942F040C94A104AA
:100030000C9466010C9466010C9466010C946601A4
:100040000C9466010C94BC080C9466010C94660137
:100050000C9466010C9466010C9466010C94720871
:100060000C9466010C94F7060C94D1060C9466016E
:100070000C9466010C9466010C9466010C94660164
:100080000C9466010C9466010C9466010C94660154
:100090000C9466010C9466010C9466010C94660144
:1000A0000C9466010C9466010C946601640367036A
:1000B00056035A0360038803880388036B036F03A6
:1000C000730379037D03880383035C0C610C660C66
:1000D000700C7A0CC40CC40CC40C840C8E0C980CE0
:1000E000A20CAF0CC40CB70C07634236B79BD8A761
:1000F0001A39685618AEBAAB558C1D3CB7CC57634D
:10010000BD6DEDFD753EF6177231BF000000803FFA
:10011000000000002300260029002C002F00080BFF
:1001200000020202010009040000010202000005B1
:1001300024001001052401010104240206052406FF
:1001400000010705810310004009040100020A00B4
:10015000000007050202400000070583024000007E
:100160000403090412010002EF0201404123378019
:1001700000010102030141726475696E6F204C4CED
:10018000430041726475696E6F204D6963726F0040
:10019000FF050001005D0008F20102000402190BD6
:1001A000031A1F1F4F4E004F46460002002302193C
:1001B0000B011A1F1FD0A0D0A3D09BD0AC00D0A29F
:1001C000D09BD0A4000520042A3838E91A1F4281A8
:1001D000041D3708861A0200040F380A011A1F1F6F
:1001E000D09FD095D094D090D09BD0AC00D0A2D04E
:1001F0009BD0A400070605040100080A0B0C0D099A
:100200000000000200090F0000030401000C0000C0
:1002100000000000000000000000000000000000DE
:10022000000000250028002B002E003100000000F7
:1002300000240027002A002D0030000404040404D8
:100240000304050202020204030202020206060679
:100250000606060404020202040404080201104017
:10026000804010204080408008020401804020101F
:1002700002011080102040402000DA1211241FBE1D
:10028000CFEFDAE0DEBFCDBF11E0A0E0B1E0E2ECFD
:10029000F0E302C005900D92A235B107D9F722E034
:1002A000A2E5B1E001C01D92A03CB207E1F711E068
:1002B000CEE3D1E004C02197FE010E942517CD3383
:1002C000D107C9F70E94B00D0C945F180C94000080
:1002D00040915E0150915F0120915C0130915D0180
:1002E00042175307B4F49091E8009570E1F39091B0
:1002F000E80092FD19C08093F10080915E01909119
:100300005F0101968F739927892B19F48EEF8093E3
:10031000E80080915E0190915F01019690935F01EA
:1003200080935E0181E0089580E00895CF92DF928E
:10033000EF92FF920F931F93CF93DF931F92CDB74E
:10034000DEB7182F062FE42E862F880F8E5F998335
:100350000E94680183E00E946801F12EC12E9981FC
:10036000D92E8C2D8F19801798F4F601E7FE02C064
:10037000849101C080810E946801182F80E00E9452
:1003800068018123FFEFCF1ADF0A8111EACF01C094
:1003900081E00F90DF91CF911F910F91FF90EF902F
:1003A000DF90CF900895DF92EF92FF920F931F930B
:1003B000CF93DF93D82E8A017B01E40EF51EEB016B
:1003C000CE15DF0571F0D7FE03C0FE01849101C098
:1003D00088810E94680121968111F2CF8FEF9FEFF3
:1003E00001C0C801DF91CF911F910F91FF90EF9055
:1003F000DF900895615030F02091F100FC012083DE
:100400000196F8CF289A84E6809371010895CF92DF
:10041000DF92EF92FF920F931F93CF93DF936C01C4
:100420007A018B01C0E0D0E0CE15DF0589F0D8015C
:100430006D918D01D601ED91FC910190F081E02D3F
:10044000C6010995892B11F47E0102C02196ECCFDB
:10045000C701DF91CF911F910F91FF90EF90DF9037
:10046000CF900895FC01538D448D252F30E0842FCB
:1004700090E0821B930B541710F0CF9608950197CC
:100480000895FC01918D828D981761F0828DDF01B6
:10049000A80FB11D5D968C91928D9F5F9F73928F77
:1004A00090E008958FEF9FEF0895FC01918D828D6C
:1004B000981731F0828DE80FF11D858D90E0089539
:1004C0008FEF9FEF0895FC01918D228D892F90E091
:1004D000805C9F4F821B91098F739927089583E752
:1004E00091E00E94630221E0892B09F420E0822F31
:1004F0000895FC01848DDF01A80FB11DA35ABF4FE1
:100500002C91848D90E001968F739927848FA68912
:10051000B7892C93A089B1898C9180648C93938D39
:10052000848D981306C00288F389E02D80818F7D29
:1005300080830895EF92FF920F931F93CF93DF93E1
:10054000EC0181E0888F9B8D8C8D981305C0E88924
:10055000F989808185FD24C0F62E0B8D10E00F5F98
:100560001F4F0F731127E02E8C8DE8120CC00FB6B1
:1005700007FCFACFE889F989808185FFF5CFCE01A4
:100580000E947902F1CF8B8DFE01E80FF11DE35A35
:10059000FF4FF0820B8FEA89FB898081806207C060
:1005A000EE89FF896083E889F9898081806480838E
:1005B00081E090E0DF91CF911F910F91FF90EF903C
:1005C0000895CF93DF93EC01888D8823C9F0EA89E1
:1005D000FB89808185FD05C0A889B9898C9186FD3C
:1005E0000FC00FB607FCF5CF808185FFF2CFA88939
:1005F000B9898C9185FFEDCFCE010E947902E7CFBA
:10060000DF91CF91089580E090E0892B29F00E943E
:100610006F0281110C9400000895CF93DF931F9215
:10062000CDB7DEB76983DC01ED91FC910280F381E7
:10063000E02D41E050E0BE016F5F7F4F09950F90C4
:10064000DF91CF91089583E08093E9008091F200DB
:10065000882319F08AE38093E8000895FC018485DB
:10066000958597FD0BC09FB7F89482E08093E900D1
:100670008091F2009FBF90E0019608959FB7F89493
:1006800082E08093E9008091F2009FBF90E008959E
:10069000089580E090E0089590E0FC013197EF30FC
:1006A000F105B0F5EA5AFF4F0C94251780918000B0
:1006B0008F7703C0809180008F7D809380000895A4
:1006C00080918000877FF9CF84B58F7702C084B591
:1006D0008F7D84BD0895809190008F7707C08091B1
:1006E00090008F7D03C080919000877F8093900061
:1006F00008958091C0008F7703C08091C0008F7DE6
:100700008093C00008958091C200877F8093C200CB
:100710000895DC015E968D919C915F97DC01ED91CF
:10072000FC910084F185E02D09950895DC015E9629
:100730008D919C915F97DC01ED91FC910284F38592
:10074000E02D09950895DC015E968D919C915F974F
:10075000DC01ED91FC910190F081E02D0994089568
:100760000895089508950895089581E008950F93D8
:100770001F93CF93DF931F92CDB7DEB782E08983BB
:1007800042E450E06EE171E080E80E94D3010E94F3
:100790009C0DDC0112960D911C911397011511050A
:1007A00069F0D801ED91FC910280F381E02DBE014A
:1007B0006F5F7F4FC801099597FF07C089810F9030
:1007C000DF91CF911F910F910895F8010085118558
:1007D000E5CF0E948B0D90E008950F931F93CF9368
:1007E000DF931F92CDB7DEB78C01FC018485958520
:1007F00097FF0EC0CE0101960E94610D019719F47A
:10080000298130E002C02FEF3FEFF80135872487C0
:10081000F801848595850F90DF91CF911F910F91FD
:100820000895CF93DF931F92CDB7DEB7FC01848587
:10083000958597FD05C02FEF3FEF358724870BC0C7
:10084000CE0101960E94610D019719F4898190E013
:1008500002C08FEF9FEF0F90DF91CF9108951F920D
:100860000F920FB60F9211248F939F938091E10006
:100870009091E100937F9093E10083FF0FC010926D
:10088000E90091E09093EB001092EC0092E39093DA
:10089000ED001092720198E09093F00082FF20C06A
:1008A00093E09093E9009091F200992319F09AE374
:1008B0009093E80090916001992339F09091600144
:1008C000915090936001992389F19091710199233E
:1008D00039F090917101915090937101992341F1F8
:1008E00084FF10C08091E2008E7E81608093E200E0
:1008F0008091E1008F7E8093E100809162018E7E85
:10090000806111C080FF16C08091E2008E7E806100
:100910008093E2008091E1008E7E8093E1008091DF
:1009200062018E7E81608093620104C05D98CDCFAC
:100930002898D6CF9F918F910F900FBE0F901F9048
:1009400018951F920F920FB60F921124CF92DF923B
:10095000EF92FF920F931F932F933F934F935F93C9
:100960006F937F938F939F93AF93BF93EF93FF9377
:10097000CF93DF93CDB7DEB76C97DEBFCDBF1092BC
:10098000E9008091E80083FFEDC168E0CE01459663
:100990000E94FA0182EF8093E8008D8987FF05C0ED
:1009A0009091E80090FFFCCF03C09EEF9093E80089
:1009B000982F907609F0C6C09E892F89188D9111C5
:1009C0000CC0803829F4809163018093F10002C04B
:1009D0001092F1001092F10048C1422F50E0512BCB
:1009E000913051F4811141C14130510509F03DC1AF
:1009F000809163018D7F0BC0933061F4811135C10B
:100A00004130510509F031C18091630182608093CA
:100A100063012BC1953041F48091E80080FFFCCF49
:100A200020682093E30021C1963009F05FC0EB8C71
:100A3000FC8C1092E90010925F0110925E0112305E
:100A400091F510925D0110925C010E94B70399E04C
:100A5000BE016F5F7F4FDB01E92F1D92EA95E9F739
:100A600099831A8391E09E8390EA98879AEF9987F9
:100A700020915E0130915F01275F3F4F3C832B83C4
:100A80008D831092E90010925F0110925E01F09246
:100A90005D01E0925C0149E050E080E00E94D301FA
:100AA0000E94B703E2C0F0925D01E0925C010E94F7
:100AB0009C0DDC011296ED90FC901397E114F1046B
:100AC00009F4C0C0D701ED91FC910480F581E02DBF
:100AD000BE016B5E7F4FC7010995009719F00CF0BE
:100AE000C4C0C7C0F701E084F184E8CF973009F4AF
:100AF000C0C0983021F481E08093F100B6C09930F5
:100B000009F0B3C0837009F0B4C0E4E1F1E081E022
:100B100021E036E39081992361F08093E9002093EE
:100B2000EB0091919093EC003093ED008F5F873054
:100B300089F78EE78093EA001092EA008F8980930C
:100B4000720193C08B8D9C8D1092E90010925F0111
:100B500010925E0190935D0180935C01898D8111FB
:100B600056C08E899D89913A59F4813209F081C02D
:100B700047E050E064E071E080E00E94D30175C07E
:100B8000913209F076C0833289F4888D90E0982FF5
:100B900088272F89822BA0E0B0E0809300019093FA
:100BA0000101A0930201B09303015FC0803269F498
:100BB0008091E80082FFFCCF67E084E091E00E9432
:100BC000FA018BEF8093E80006C0823209F04DC035
:100BD0008F8980930B0180916101882319F0EEEFDA
:100BE000FAE002C0E0E0F8E0809104019091050194
:100BF000A0910601B0910701803B9440A105B10589
:100C000009F07BC080910B0180FF93C076C00E94E9
:100C10009C0DDC0112960D911C9113970115110585
:100C200041F1D801ED91FC910190F081E02DBE01E0
:100C30006B5E7F4FC8010995811117C0F8010085CF
:100C40001185ECCF113009F44EC0133091F48F8927
:100C5000882309F445C0823081F440E86DE082E8E1
:100C600091E00E949601882321F08EEF8093E800A6
:100C700079C081E28093EB0075C0813029F440E8AF
:100C80006BE086E791E0EDCF833099F70E949C0DF1
:100C9000DC011296ED90FC9013978E010F5F1F4FB1
:100CA0006801E114F10479F0D701ED91FC9106801F
:100CB000F781E02DB801C7010995080F111DF70153
:100CC000E084F184EECFD8011C92F601019000205F
:100CD000E9F73197BF016C197D0940E0C601C1CF2A
:100CE00060E671E002C064E671E06115710509F229
:100CF000FB01449150E080E840CF0FB6F894A895EE
:100D000080916000886180936000109260000FBE47
:100D1000A895EE3F2AE0F20739F08091FE0A909103
:100D2000FF0A91838083A1CF1092FF0A1092FE0ADE
:100D30009CCFEE3F8AE0F80731F08081918190935B
:100D4000FF0A8093FE0A87E797E7918380839BE001
:100D500088E10FB6F894A895809360000FBE909339
:100D6000600083CF6C960FB6F894DEBF0FBECDBF88
:100D7000DF91CF91FF91EF91BF91AF919F918F91B3
:100D80007F916F915F914F913F912F911F910F91A3
:100D9000FF90EF90DF90CF900F900FBE0F901F90BD
:100DA00018951F920F920FB60F9211242F933F9315
:100DB0004F935F936F937F938F939F93AF93BF9363
:100DC000EF93FF9383E791E00E947902FF91EF9107
:100DD000BF91AF919F918F917F916F915F914F9153
:100DE0003F912F910F900FBE0F901F9018951F925B
:100DF0000F920FB60F9211242F938F939F93EF931F
:100E0000FF93E0918301F09184018081E091890159
:100E1000F0918A0182FD12C0908180918C018F5FD8
:100E20008F7320918D01821751F0E0918C01F0E0D9
:100E3000ED58FE4F958F80938C0101C08081FF910A
:100E4000EF919F918F912F910F900FBE0F901F9058
:100E50001895CF93DF93282F30E0F901E050FE4F33
:100E60008491F901E65AFD4FD491F901E55CFD4FFB
:100E7000C491CC2391F081110E944C03EC2FF0E03F
:100E8000EE0FFF1FE05FFE4FA591B491EC91ED23B3
:100E900081E090E021F480E002C080E090E0DF910A
:100EA000CF9108951F93CF93DF93282F30E0F9015E
:100EB000E050FE4F8491F901E65AFD4FD491F901BB
:100EC000E55CFD4FC491CC23C9F0162F81110E941F
:100ED0004C03EC2FF0E0EE0FFF1FE15EFD4FA591FC
:100EE000B4918FB7F894111105C09C91ED2FE09546
:100EF000E92302C0EC91ED2BEC938FBFDF91CF91F2
:100F00001F9108953FB7F89480915801909159012D
:100F1000A0915A01B0915B0126B5A89B05C02F3F57
:100F200019F00196A11DB11D3FBFBA2FA92F982F0F
:100F30008827820F911DA11DB11DBC01CD0142E08A
:100F4000660F771F881F991F4A95D1F708958F92D2
:100F50009F92AF92BF92CF92DF92EF92FF926B017E
:100F60007C010E9482074B015C01C114D104E104A1
:100F7000F104F1F00E948207DC01CB018819990984
:100F8000AA09BB09883E9340A105B10570F321E091
:100F9000C21AD108E108F10888EE880E83E0981E95
:100FA000A11CB11CC114D104E104F10419F7DDCF77
:100FB000FF90EF90DF90CF90BF90AF909F908F9079
:100FC00008958F929F92AF92BF92CF92DF92EF924D
:100FD000FF920F931F93CF93DF935C016B017A0114
:100FE00080910B01882309F45BC0809172018823F2
:100FF00009F456C08091620180FF05C08091E00035
:1010000082608093E000E70110E00AEF83E0882E21
:101010009AE3992E2097D9F10E948B0D81110AC075
:10102000015009F43DC061E070E080E090E00E9472
:10103000A707F0CF282F30E0C217D3070CF48C2F6E
:101040004FB7F8948092E9009091E80095FF1DC099
:10105000282F30E0C21BD30BF601982F915020F0BF
:1010600081918093F100FACFC20ED31E112319F0A3
:101070009092E80009C08091E80085FD06C090923A
:10108000E80011E0209709F010E04FBFC3CF111125
:10109000C3CF5D9A84E6809360011E141F0444F060
:1010A00081E090E0F5019383828380E090E001C0CD
:1010B000C701DF91CF911F910F91FF90EF90DF90CB
:1010C000CF90BF90AF909F908F9008952FB7F894D6
:1010D0006091540170915501809156019091570192
:1010E0002FBF08951F920F920FB60F9211242F93C6
:1010F0003F938F939F93AF93BF93809154019091AF
:101100005501A0915601B09157013091530123E050
:10111000230F2D3720F40196A11DB11D05C026E82F
:10112000230F0296A11DB11D2093530180935401FA
:1011300090935501A0935601B093570180915801A7
:1011400090915901A0915A01B0915B010196A11DA6
:10115000B11D8093580190935901A0935A01B09307
:101160005B01BF91AF919F918F913F912F910F9014
:101170000FBE0F901F9018951F920F920FB60F92EF
:1011800011242F933F934F935F936F937F938F938C
:101190009F93AF93BF93EF93FF938091520187FF8B
:1011A00005C010928500109284001BC0209152014E
:1011B000022E000C330B8091340290E0281739077F
:1011C00084F480915201082E000C990BFC01EE0F63
:1011D000FF1F8E0F9F1FFC01E05FFD4F808186FD8A
:1011E00015C0809152018F5F80935201209152016E
:1011F000022E000C330B8091340290E0281739073F
:10120000C4F4809152018C3064F113C0809152017A
:10121000082E000C990BFC01EE0FFF1F8E0F9F1F75
:10122000FC01E05FFD4F808160E08F730E945207F8
:10123000D8CF8091840090918500049680349C4999
:1012400018F480E49CE905C08091840090918500A9
:10125000049690938900809388008FEF80935201C9
:101260003BC0209184003091850080915201082E6E
:10127000000C990BFC01EE0FFF1F8E0F9F1FFC014E
:10128000E05FFD4F81819281820F931F90938900CF
:101290008093880080915201082E000C990BFC016C
:1012A000EE0FFF1F8E0F9F1FFC01E05FFD4F80813F
:1012B00086FF12C080915201082E000C990BFC0190
:1012C000EE0FFF1F8E0F9F1FFC01E05FFD4F80811F
:1012D00061E08F730E945207FF91EF91BF91AF9130
:1012E0009F918F917F916F915F914F913F912F913E
:1012F0000F900FBE0F901F901895CF92DF92EF9234
:10130000FF92CF93DF93EC012881398121303105A1
:1013100091F174F4232B09F044C02A853B854C8558
:101320005D856A897B898C899D890E9424143CC0D3
:101330002230310529F12330310599F52A853B8585
:101340004C855D856A897B898C899D890E942414DE
:101350006B017C0120E034E244E759E46A817B813F
:101360008C819D810E9491149B01AC01C701B60143
:101370000E94911419C06A857B858C859D8514C057
:1013800020E034E244E759E46A817B818C819D81CD
:101390000E9491142A853B854C855D850E949E168E
:1013A00003C060E070E0CB01DF91CF91FF90EF9040
:1013B000DF90CF9008954F925F926F927F928F92BD
:1013C0009F92AF92BF92CF92DF92EF92FF92CF9314
:1013D000DF93EC012A013B010E9482076B017C0133
:1013E0008A8D9B8DAC8DBD8DA7019601281B390B75
:1013F0004A0B5B0BCA01B9010E9475159B01AC0138
:101400006E8B7F8B888F998FCA8EDB8EEC8EFD8ED4
:101410008A849B84AC84BD848E869F86A88AB98A80
:101420004A8A5B8A6C8A7D8A6A817B818C819D81F4
:101430000E9491149B01AC016E837F8388879987FA
:1014400060E070E080E89FEB0E9491140E940B1511
:101450006B017C019B01AC0160E070E080E89FE3E0
:101460000E942414A30192010E949E162B013C01AC
:10147000A5019401C701B6010E949E169B01AC0113
:10148000C301B2010E9425146A877B878C879D87E0
:10149000CE01DF91CF91FF90EF90DF90CF90BF9082
:1014A000AF909F908F907F906F905F904F900C9433
:1014B0007D09FC018081918186279183808328E0CA
:1014C00040815181CA019695879540FF04C031E063
:1014D000832730EA932791838083215089F70895E9
:1014E0000F931F93CF93C62F8A01DC01ED91FC91DE
:1014F0000084F185E02D09956C2FC801CF911F91D3
:101500000F910C94590A8F929F92AF92BF92CF92F3
:10151000DF92EF92FF920F931F93CF93DF9300D050
:10152000CDB7DEB77C01162F6A0159018FEF9FEF0F
:101530009A838983490186E0880E911CD701ED9139
:10154000FC910680F781E02DB401C7010995AE0139
:101550004F5F5F4F65E5C7010E94700AAE014F5FA4
:101560005F4F682DC7010E94700AAE014F5F5F4F49
:10157000692DC7010E94700AAE014F5F5F4F612F56
:10158000C7010E94700AAC0CBD1CCA14DB0489F0B0
:10159000002319F0F601649102C0D6016C91AE01EE
:1015A0004F5F5F4FC7010E94700ABFEFCB1ADB0A83
:1015B000ECCFD701ED91FC910084F185E02D69819C
:1015C000C7010995D701ED91FC916A810084F185ED
:1015D000E02DC701099581E10E94290761E0892B6F
:1015E00009F060E081E10E9452070F900F90DF91B7
:1015F000CF911F910F91FF90EF90DF90CF90BF9010
:10160000AF909F908F900895EF92FF920F931F934A
:10161000CF93DF9300D000D0CDB7DEB77C01DC01E3
:101620005196ED91FC915297818190E0AC0146502A
:1016300051092381203409F46FC018F42223C9F022
:10164000A1C0203809F474C0203C09F09BC0D70128
:1016500019962D913C911A9715964D915C9116977C
:101660001B968D919C911C97480F591F00E060ECD0
:101670007DC0D70117968D919C911897452B29F421
:10168000FC018081882361F021C0DC01349681E077
:101690009D912191921380E09111FACF8823B1F0AE
:1016A000D7011D962D913C911E9713964D915C91FB
:1016B000149701E060E0C7010E94830AD7011F96DA
:1016C000ED91FC91509781E0808353C0D701139630
:1016D000ED91FC91149712968C91853018F482E06C
:1016E00090E002C083E090E09C012F5F3F4FDE015D
:1016F0001196BF01680F791FAD01E617F70721F0BA
:1017000014911D933196F9CFFA01E80FF91F60EF9C
:10171000608300E060E02AC0F7012185328583857F
:101720009485280F391F4581568100E060E41EC072
:10173000D7011B962D913C911C974217530739F006
:1017400000E020E030E040E050E060E80FC0AF0192
:101750004C5F5F4FF701A581B681019785309105F8
:1017600079F3FA012191AF012D93F7CFC7010E94C0
:10177000830A0E946608F701618F728F838F948FAE
:1017800081E001C080E00F900F900F900F90DF91EB
:10179000CF911F910F91FF90EF900895AF92BF925C
:1017A000CF92DF92EF92FF920F931F93CF93DF932D
:1017B000FC0105891689818992892FEF3FEF308FCF
:1017C000278B9C01260F371FD9016017710730F551
:1017D0002F5F3F4F4C914535F1F49801261B370B95
:1017E000368B258B7C015D016B01CA1ADB0AEF0188
:1017F000679696012A0D3B1D2017310788F4F501E5
:101800006081CE010E94590AF50181915F01F701C3
:1018100081937F01EECF6F5F7F4FD6CF168A158AF7
:10182000DF91CF911F910F91FF90EF90DF90CF90BC
:10183000BF90AF90089590E0FC01E65AFD4F2491CF
:10184000FC01E55CFD4F8491882399F090E0880FBE
:10185000991FFC01E35DFD4FA591B491FC01E15E90
:10186000FD4F859194918FB7F894EC91E22BEC9316
:101870008FBF0895CF93DF93EC018AE00E941B0C89
:10188000209711F460E004C0CF3FD10531F461E04E
:101890008AE0DF91CF910C945207EAE0F2E0E49104
:1018A0008E2F90E0FC013197EF30F10508F06CC00D
:1018B000EB59FF4F0C94251784B5806884BDC7BDD4
:1018C00068C084B5806284BDC8BD63C0809180005B
:1018D000806880938000D0938900C093880059C0AD
:1018E00080918000806280938000D0938B00C093B1
:1018F0008A004FC080918000886080938000D093E0
:101900008D00C0938C0045C08091900080688093CA
:101910009000D0939900C09398003BC080919000B4
:10192000806280939000D0939B00C0939A0031C056
:1019300080919000886080939000D0939D00C09328
:101940009C0027C08091C00080688093C000809177
:10195000C0008F7B8093C000C093CF001AC08091DD
:10196000C00080628093C000C093D00012C08091FC
:10197000C20088608093C2008091C2008B7F8093F8
:10198000C200C093D20005C0C038D1050CF07FCF93
:1019900079CFDF91CF91089580E090E00E943A0CDA
:1019A00061E080E10E94520760E08EE00E945207F1
:1019B00010925402109253020895CF92DF92EF9248
:1019C000FF92DC01A03282E0B8070CF03EC0B7FD08
:1019D00006C0A53BB1052CF0A4EBB0E002C0A0E02E
:1019E000B0E080915E0228E830E06901C81AD108B1
:1019F00087FDD394CC0CDD1CCC0CDD1C0D2C000C15
:101A0000EE08FF0880915F0228E532E0281B3109CB
:101A100087FD3395220F331F220F331FA901330F88
:101A2000660B770B9A01AB012C193D094E095F0932
:101A30000E94EB1324EB30E040E050E00E94C11321
:101A4000C20ED31EE41EF51ED60190915D029C309D
:101A500098F580915E0248E850E0481B510987FDE7
:101A60005395440F551F440F551FA417B5078CF00D
:101A700080915F0228E532E0281B310987FD33950C
:101A8000220F331F220F331FAD012A173B070CF41F
:101A9000A90142505109440F551F2FB7F894892FBF
:101AA00090E0FC01EE0FFF1F8E0F9F1FFC01E05F17
:101AB000FD4F528341832FBFFF90EF90DF90CF9077
:101AC0000895FC0180917201811103C08FEF9FEF97
:101AD00008959FB7F89482E08093E9002091F20086
:101AE00030E01216130614F421E030E02115310520
:101AF00059F0289A84E6809371018091F1008083E7
:101B00008091F200882319F09FBFC90108958BE6E8
:101B10008093E800F9CF2FB7F89483E08093E90031
:101B20009091E800892F807295FF04C09091F20097
:101B300080E4891B2FBF08958091640281110DC03C
:101B400082E08093600284E08093610210926302DD
:101B50001092620281E08093640280E692E0089530
:101B6000CF93DF93CDB7DEB728970FB6F894DEBFDB
:101B70000FBECDBF789484B5826084BD84B581608A
:101B800084BD85B5826085BD85B5816085BD809148
:101B90006E00816080936E001092810080918100C0
:101BA00082608093810080918100816080938100B8
:101BB000809180008160809380008091910082609C
:101BC0008093910080919100816080939100809139
:101BD00090008160809390008091C1008460809328
:101BE000C1008091C10082608093C1008091C100DA
:101BF00081608093C1008091C30081608093C300A5
:101C00008091C00082608093C0008091C20081609A
:101C10008093C20080917A00846080937A008091E2
:101C20007A00826080937A0080917A00816080934C
:101C30007A0080917A00806880937A001092720115
:101C400010926301109262018091D70081608093AD
:101C5000D70080EA8093D80089B5806189BD89B5B5
:101C6000826089BD09B400FEFDCF61E070E080E0D4
:101C700090E00E94A7078091D8008F7C80618093BC
:101C8000D8008091E000807F8093E0008091E100A7
:101C90008E7E8093E1008DE08093E200559A209A39
:101CA0005D982898EEEFFFE7859194918B3F9C4DCE
:101CB00019F481E0809361018FE00E941B0C87E0A2
:101CC0000E941B0C88E00E941B0C89E00E941B0CE8
:101CD00061E088E00E94520761E089E00E945207BB
:101CE0008EE10E941B0C61E08EE10E94520764E6C7
:101CF00070E080E090E00E94A70760E08FE00E9423
:101D0000520762E370E080E090E00E94A70760E085
:101D100087E00E94520762E370E080E090E00E945A
:101D2000A70761E08FE00E94520783E080930C01D7
:101D30008EE00E941B0C8AE00E941B0C60E080E198
:101D40000E94520780E10E941B0C80E090E00E94FC
:101D50003A0C0E94CC0C80915D028C3008F050C08F
:101D600086E00E941B0C80915D02E82FF0E09F014D
:101D7000220F331FE20FF31FE05FFD4F9081907C35
:101D80009660908310925E0210925F026CE00E9457
:101D900019179CE0899FB001112440E050E09A019E
:101DA000260F371FF901EE0FFF1F2E0F3F1FF901FE
:101DB000E05FFD4F908196FD16C04F5F5F4F4C3046
:101DC000510569F781110FC01092800082E0809365
:101DD00081001092850010928400B19A80916F006A
:101DE000826080936F00E0915D02F0E0CF01880F88
:101DF000991FE80FF91FE05FFD4F808180648083A9
:101E000080E090E00E94DD0C80E290E00E943217BA
:101E10008C018EE191E0D80111969C938E9383E71B
:101E200091E05F969C938E935E97E0918301F09191
:101E3000840182E08083E0917F01F0918001108233
:101E4000E0918101F09182018FEC808310928B01EF
:101E5000E0918701F091880186E08083E09185011F
:101E6000F0918601808180618083E0918501F0910D
:101E70008601808188608083E0918501F0918601F0
:101E8000808180688083E0918501F0918601808166
:101E90008F7D8083E0E9F1E0E491EF3FE9F4E1E94F
:101EA000F1E08491E2E9F1E09491E82FF0E0F92B80
:101EB0001C96FC93EE931B97E3E9F1E08491E4E92F
:101EC000F1E09491E82FF0E0F92B1A96FC93EE9351
:101ED0001997E5E9F1E010C0F0E0D8011C96FC93F9
:101EE000EE931B97E1E9F1E0E491F0E01A96FC93A0
:101EF000EE931997E2E9F1E02491AF014E5F5F4F55
:101F00003196849130E0F901F82BD8011E96FC93AC
:101F1000EE931D9714965C934E931397FA01449198
:101F200012964C93129788E691E016969C938E93A6
:101F300015971B968D919C911C971996ED90FC908E
:101F40001A97E80EF91EF701E859FE4F5096FC93D8
:101F5000EE931F97108220E531E018963C932E9364
:101F60001797069654969C938E9353970E94321718
:101F7000F801928B818B8E2DE8E6F1E0815010F014
:101F80001192FCCFD80156961C921E9255978FEF56
:101F90009FEF58969C938E935797F801118E128E4F
:101FA000138E148E81E0858F1093700100936F0162
:101FB00063E0662E712C74E6872E912CA12CB12C37
:101FC000E8EC2E2E312C412C512C00916F011091F8
:101FD0007001D8015D968C915D97882309F4CBC080
:101FE000ED91FC910280F381E02DC8010995F80183
:101FF0007796FE83ED83D801ED91FC910484F585FD
:10200000E02DC8010995882309F490C0D801ED910D
:10201000FC910284F385E02DC8010995F8014589FA
:1020200056894115510511F4853529F7D801519686
:102030002D913C915297FA0131965696FC93EE936E
:102040005597F901E40FF51F8083682F8D819E81DC
:102050000E94590AF8012589368983899489821753
:10206000930728F461E070E0C8010E94CE0BD8010C
:1020700055968D919C9156978630910508F47BC0BA
:102080005196ED91FC915297E280F12CFE2CEE24BA
:102090002181E22A53962D913C9154972E153F05AC
:1020A00008F3B6E0EB16F104E8F2E816F906B1F42D
:1020B000F8018789908D892BA9F6C8010E94040B2D
:1020C000882381F2D80156961C921E925597EFEF05
:1020D000FFEF5896FC93EE9357978DCFE816F906CD
:1020E00008F089CF6FEF7FEF7A8369836F019F01DB
:1020F0002E0D3F1DC216D30661F0D6016D916D0104
:10210000CE0101962F8338870E94590A38852F8186
:10211000F1CF89819A81892B09F0A4CFC8010E944F
:10212000040B882309F49ECFB7019ECF0E94660856
:10213000F801C18CD28CE38CF48CDC01CB018C19BE
:102140009D09AE09BF0989389341A105B10598F0F1
:10215000D8011F96ED91FC9150978081882351F012
:1021600056961C921E9255976FEF7FEF58967C9370
:102170006E935797108261E080916801811160E051
:1021800088E00E94520761E080916901811160E05E
:1021900089E00E9452070E94660800916401109134
:1021A0006501012E000C220B330BDC01CB01801BDF
:1021B000910BA20BB30B8D329140A105B10508F430
:1021C00072C00E9466087093650160936401E4EF39
:1021D000F1E0849190917B0083FBFF27F0F9FB8372
:1021E0001C822B813C8145E0220F331F4A95E1F789
:1021F0009F7D292B20937B00877020910C0160E448
:10220000269F90011124822B80937C0080917A007C
:10221000806480937A0080917A0086FDFCCF609183
:1022200078008091790070E0782B072E000C880BE5
:10223000990B0E9475152AE037ED43E250E40E94A5
:102240009E1620E030EC4FE754E40E94911428ECF5
:1022500031EF42EA55E40E949E1620E030E04AE762
:1022600054E40E94911426E636E64EE151E40E94C1
:10227000241420E030E048EC52E40E949E162CEC3E
:102280003CEC4CE250E40E9491140E943D15072E54
:10229000000C880B990B0E947515AB01BC0185E3FE
:1022A00092E00E94DB0985E392E00E947D090E9492
:1022B0003D1577FF60936D01A0916B012A2F0A2EC7
:1022C000000C330B80915502909156022115310577
:1022D00039F10CF0F3C08230910509F08BC00E94F7
:1022E0006608609357027093580280935902909346
:1022F0005A0270925602609255020E94CC0CE091F4
:102300005B02F0915C02128A138A148A158A16867F
:102310001786108A118A12861386148615862AC09B
:102320008230910509F034C180E090E00E943A0CBF
:1023300060E080E10E94520760E08EE00E94520758
:1023400081E090E09093540280935302E0915B020D
:10235000F0915C02128A138A148A158A16861786EF
:10236000108A118A128613861486158610925602D8
:102370001092550220916A01822F220F990BAA0B0D
:10238000BB0B9C01AD012C593F4F4F4F5F4FA4EB4E
:10239000B0E00E94E013A20191010E94C113C901A3
:1023A0000E94DD0C0E946608009166011091670191
:1023B000012E000C220B330BDC01CB01801B910B97
:1023C000A20BB30B893E9340A105B10580F00E949A
:1023D000660870936701609366018EE10E94290789
:1023E00061E0892B09F060E08EE10E9452070E94B3
:1023F0000303EBCD83309105ECF5892B09F0BACFBF
:1024000085E090E09093560280935502AA27BB275F
:10241000A21BB30B2FEF30E00E942B17A5019401F4
:102420000E94C113CA01B9010E947515AB01BC011C
:1024300080915B0290915C020E94DB0980915B02BB
:1024400090915C020E947D096B017C0170925402A4
:102450006092530261E080E10E94520760E08EE0EA
:102460000E945207C701B6010E943D15CB010E9490
:102470003A0C80CF83309105E9F40E946608009100
:102480005702109158022091590230915A02DC01F2
:10249000CB01801B910BA20BB30B81329340A105A2
:1024A000B10508F467CF84E090E0909356028093E2
:1024B000550260CF059709F4A3CF5CCF8330910517
:1024C000C9F40E94660800915702109158022091A9
:1024D000590230915A02DC01CB01801B910BA20BF7
:1024E000B30B81329340A105B10508F443CF81E0DD
:1024F00090E0DBCF843091050CF042C00097E1F50D
:1025000082E090E090935602809355020A2E000CD0
:10251000BB0B2FEF30E00E942B17A50194010E9406
:10252000C113CA01B9010E947515AB01BC018091AC
:102530005B0290915C020E94DB0980915B029091AA
:102540005C020E947D096B017C01A2E0B0E0B093C7
:102550005402A093530261E080E10E94520761E0BF
:102560008EE00E945207C701B6010E943D158FEF11
:1025700090E0861B970B7BCF029709F0FBCEC0CF74
:102580008430910509F4BCCF059709F4A8CEF2CEAA
:10259000833091053CF4009709F4D8CE019709F4F3
:1025A000E5CEE8CE8430910509F4E0CE059709F434
:1025B000BBCEE0CE0F931F93CF93DF9310927601A3
:1025C0001092750188EE93E0A0E0B0E0809377016F
:1025D00090937801A0937901B0937A0120E331E0E0
:1025E00030937401209373012DEC30E0309380011F
:1025F00020937F012CEC30E0309382012093810105
:1026000028EC30E0309384012093830129EC30E002
:1026100030938601209385012AEC30E030938801C5
:10262000209387012EEC30E030938A0120938901BA
:1026300010928C0110928D0110928E0110928F01D8
:1026400010926F0210926E0280937002909371024A
:10265000A0937202B093730282E491E090936D02B2
:1026600080936C028FEF9FEF9093790280937802B2
:10267000809134028C30A0F491E0980F9093340252
:1026800080935D0290E0FC01EE0FFF1F8E0F9F1FF5
:10269000FC01E05FFD4F88EB9BE09283818303C0E8
:1026A0008FEF80935D028EE190E00E943217EC0183
:1026B00001E010E0198308838CEB9CE6ABE9B7E4FA
:1026C0008A839B83AC83BD831A861B861C861D86EA
:1026D0001E861F86188A198A1A8A1B8A1C8A1D8AD6
:1026E0000E9482076A8F7B8F8C8F9D8FD0935C02B4
:1026F000C0935B021092560210925502109354023E
:1027000000935302109257021092580210925902ED
:1027100010925A0210933602009335028AEF9DEA16
:10272000A8EFB6E48093370290933802A093390261
:10273000B0933A0210923F0210924002109241026E
:1027400010924202109243021092440210924502EB
:1027500010924602109247021092480210924902CB
:1027600010924A020E94820760934F0270935002B7
:102770008093510290935202DF91CF911F910F915C
:102780000895052E97FB1EF400940E94D81357FD60
:1027900007D00E94F31307FC03D04EF40C94D81317
:1027A00050954095309521953F4F4F4F5F4F08957D
:1027B00090958095709561957F4F8F4F9F4F0895AD
:1027C0000E941514A59F900DB49F900DA49F800D9D
:1027D000911D11240895B7FF0C94E0130E94E0139B
:1027E000821B930B0895A1E21A2EAA1BBB1BFD01AD
:1027F0000DC0AA1FBB1FEE1FFF1FA217B307E407E0
:10280000F50720F0A21BB30BE40BF50B661F771F37
:10281000881F991F1A9469F7609570958095909517
:102820009B01AC01BD01CF010895A29FB001B39FF0
:10283000C001A39F700D811D1124911DB29F700DC9
:10284000811D1124911D08955058BB27AA270E946D
:102850003C140C94EE150E94E01538F00E94E71528
:1028600020F039F49F3F19F426F40C94B6150EF4B9
:10287000E095E7FB0C94B015E92F0E94FF1558F383
:10288000BA17620773078407950720F079F4A6F555
:102890000C9421160EF4E0950B2EBA2FA02D0B01EF
:1028A000B90190010C01CA01A0011124FF27591B95
:1028B00099F0593F50F4503E68F11A16F040A22F9B
:1028C000232F342F4427585FF3CF4695379527950C
:1028D000A795F0405395C9F77EF41F16BA0B620B0B
:1028E000730B840BBAF09150A1F0FF0FBB1F661F52
:1028F000771F881FC2F70EC0BA0F621F731F841F95
:1029000048F4879577956795B795F7959E3F08F0BA
:10291000B0CF9395880F08F09927EE0F979587957C
:1029200008950E94A5140C94EE150E94E71558F026
:102930000E94E01540F029F45F3F29F00C94B01597
:1029400051110C9422160C94B6150E94FF1568F3D1
:102950009923B1F3552391F3951B550BBB27AA2758
:1029600062177307840738F09F5F5F4F220F331F92
:10297000441FAA1FA9F335D00E2E3AF0E0E832D05A
:1029800091505040E695001CCAF72BD0FE2F29D05D
:10299000660F771F881FBB1F261737074807AB072F
:1029A000B0E809F0BB0B802DBF01FF2793585F4FA4
:1029B0003AF09E3F510578F00C94B0150C94221615
:1029C0005F3FE4F3983ED4F3869577956795B79586
:1029D000F7959F5FC9F7880F911D9695879597F991
:1029E0000895E1E0660F771F881FBB1F621773070A
:1029F0008407BA0720F0621B730B840BBA0BEE1F1F
:102A000088F7E095089529F416F00C94B0150C940D
:102A100021160C94B6150E940716A8F39638A0F755
:102A200007F80F92E8942BE33AEA48EB5FE70E943D
:102A3000B4160F920F920F924DB75EB70F920E948D
:102A40006A16E8EEF0E00E94B9154F915F91EF91A0
:102A5000FF91E595EE1FFF1F49F0FE57E068442700
:102A6000EE0F441FFA95E1F74195550B0E9434167D
:102A70000F9007FE0C94281608950E944415689440
:102A8000B1110C94221608950E94071688F09F57E2
:102A900098F0B92F9927B751B0F0E1F0660F771F82
:102AA000881F991F1AF0BA95C9F714C0B13091F078
:102AB0000E942116B1E008950C942116672F782FFB
:102AC0008827B85F39F0B93FCCF38695779567953D
:102AD000B395D9F73EF490958095709561957F4FA9
:102AE0008F4F9F4F0895E89409C097FB3EF490954F
:102AF0008095709561957F4F8F4F9F4F9923A9F0D7
:102B0000F92F96E9BB279395F69587957795679565
:102B1000B795F111F8CFFAF4BB0F11F460FF1BC0A9
:102B20006F5F7F4F8F4F9F4F16C0882311F096E93C
:102B300011C0772321F09EE8872F762F05C06623EA
:102B400071F096E8862F70E060E02AF09A95660FA3
:102B5000771F881FDAF7880F9695879597F908955C
:102B600097F99F6780E870E060E008959FEF80EC40
:102B70000895DF93CF931F930F93FF92EF92DF920D
:102B80007B018C01689406C0DA2EEF010E94B11619
:102B9000FE01E894A5912591359145915591A6F3B3
:102BA000EF010E943C14FE019701A801DA9469F735
:102BB000DF90EF90FF900F911F91CF91DF910895DB
:102BC00000240A941616170618060906089500240C
:102BD0000A9412161306140605060895092E039486
:102BE000000C11F4882352F0BB0F40F4BF2B11F4FA
:102BF00060FF04C06F5F7F4F8F4F9F4F089557FD59
:102C00009058440F551F59F05F3F71F04795880F5A
:102C100097FB991F61F09F3F79F0879508951216F1
:102C200013061406551FF2CF4695F1DF08C016169D
:102C300017061806991FF1CF86957105610508944E
:102C40000895E894BB2766277727CB0197F9089565
:102C50009B01AC0160E070E080E89FE30C9491146C
:102C60000C94B0150C940B170E940716D8F39923F7
:102C7000C9F3940F511DA3F39150504094F059F0B3
:102C8000882332F0660F771F881F91505040C1F79C
:102C90009E3F51052CF7880F911D9695879597F9C2
:102CA00008955F3FACF0983E9CF0BB2786957795E2
:102CB0006795B79508F4B1609395C1F7BB0F58F7C6
:102CC00011F460FFE8CF6F5F7F4F8F4F9F4FE3CFCF
:102CD0000C942216FA01DC01AA0FBB1F9B01AC0168
:102CE000BF5728F4222733274427507820C0B751F4
:102CF00090F4AB2F0024469537952795011CA3959A
:102D0000D2F3002071F0220F331F441FB395DAF382
:102D10000ED00C94241461307105A0E88A07B946DE
:102D200030F49B01AC01662777278827907830968E
:102D300021F0208331834283538308950E94B1168A
:102D40000C94EE150E94E01538F00E94E71520F073
:102D5000952311F00C94B0150C94B61511240C9415
:102D600022160E94FF1570F3959FC1F3950F50E056
:102D7000551F629FF001729FBB27F00DB11D639F2D
:102D8000AA27F00DB11DAA1F649F6627B00DA11DD3
:102D9000661F829F2227B00DA11D621F739FB00D79
:102DA000A11D621F839FA00D611D221F749F3327E9
:102DB000A00D611D231F849F600D211D822F762F82
:102DC0006A2F11249F5750409AF0F1F088234AF05F
:102DD000EE0FFF1FBB1F661F771F881F91505040CB
:102DE000A9F79E3F510580F00C94B0150C94221663
:102DF0005F3FE4F3983ED4F3869577956795B79552
:102E0000F795E7959F5FC1F7FE2B880F911D96956B
:102E1000879597F908959F3F31F0915020F4879559
:102E200077956795B795880F911D9695879597F932
:102E30000895991B79E004C0991F961708F0961B16
:102E4000881F7A95C9F780950895EE0FFF1F0590AA
:102E5000F491E02D09940E941514B7FF0895821B88
:102E6000930B0895CF93DF938230910510F482E0A5
:102E700090E0E091BE02F091BF0220E030E0C0E0BF
:102E8000D0E0309711F14081518148175907C0F0C7
:102E90004817590761F482819381209719F09B8329
:102EA0008A832BC09093BF028093BE0226C0211557
:102EB000310519F04217530718F49A01BE01DF01DA
:102EC000EF010280F381E02DDCCF2115310509F1FE
:102ED000281B390B2430310590F412968D919C916A
:102EE00013976115710521F0FB019383828304C060
:102EF0009093BF028093BE02FD01329644C0FD0153
:102F0000E20FF31F81939193225031092D933C934B
:102F10003AC02091BC023091BD02232B41F4209194
:102F20000F01309110013093BD022093BC0220911B
:102F30000D0130910E012115310541F42DB73EB739
:102F40004091110150911201241B350BE091BC02FC
:102F5000F091BD02E217F307A0F42E1B3F0B2817D8
:102F6000390778F0AC014E5F5F4F2417350748F002
:102F70004E0F5F1F5093BD024093BC02819391930B
:102F800002C0E0E0F0E0CF01DF91CF9108950F9310
:102F90001F93CF93DF93009709F48CC0FC01329705
:102FA000138212820091BE021091BF020115110519
:102FB00081F420813181820F931F2091BC023091D6
:102FC000BD022817390779F5F093BD02E093BC02E2
:102FD00071C0D80140E050E0AE17BF0750F4129620
:102FE0002D913C911397AD012115310509F1D901BE
:102FF000F3CF9D01DA013383228360817181860FD3
:10300000971F8217930769F4EC0128813981260FF5
:10301000371F2E5F3F4F318320838A819B819383AB
:103020008283452B29F4F093BF02E093BE0242C095
:103030001396FC93EE931297ED01499159919E01DD
:10304000240F351FE217F30771F480819181840FFB
:10305000951F029611969C938E938281938113966D
:103060009C938E931297E0E0F0E0D80112968D9138
:103070009C911397009719F0F8018C01F6CF8D9170
:103080009C9198012E5F3F4F820F931F2091BC02AD
:103090003091BD022817390769F4309729F410924E
:1030A000BF021092BE0202C0138212821093BD02B0
:1030B0000093BC02DF91CF911F910F910895F89476
:1030C000FFCFFFFFFFFF00E1000000000000010054
:1030D00000C002800000C1808100000000000000EC
:1030E000B503B403B303B203A3039603890300003B
:1030F00000009A0207023202E10263024102550215
:10310000000000000D03E107E90323032E0311046F
:10311000ED030000FFFFFFFFFFFFFFFFFFFFFFFFCB
:10312000FFFFFFFFFFFFFFFFFFFFFFFFFFFFFFFFAF
:10313000FFFFFFFFFFFFFFFFFFFFFFFFFFFFFFFF9F
:10314000FFFFFFFFFFFFFFFFFFFFFFFFFFFFFFFF8F
:10315000FFFFFFFFFFFFFFFFFFFFFFFFFFFFFFFF7F
:1070000055C000006EC000006CC000006AC00000E7
:1070100068C0000066C0000064C0000062C00000DC
:1070200060C000005EC00000F2C400005AC0000052
:1070300058C0000056C0000054C0000052C00000FC
:1070400050C0000078C000004CC000004AC00000E2
:1070500048C0000046C0000044C0000042C000001C
:1070600040C000003EC000003CC000003AC000002C
:1070700038C0000036C0000034C0000032C000003C
:1070800030C000002EC000002CC000002AC000004C
:1070900028C0000026C0000024C0000022C000005C
:1070A00020C000001EC000001CC0000011241FBE34
:1070B000CFEFDAE0DEBFCDBF11E0A0E0B1E0E2E368
:1070C000FFE702C005900D92A83AB107D9F711E089
:1070D000A8EAB1E001C01D92AE3BB107E1F78FD342
:1070E00026C78ECFF89410926F00109281001092F4
:1070F00085001092840081E085BF15BE47985D9A97
:10710000289A0C94000008952091B2013091B301A7
:107110002F5F3F4F3093B3012093B201932F37FF7E
:1071200003C08EEF831B982F990F921710F4479886
:107130000895479A08951F920F920FB60F92112447
:107140002F938F939F93EF93FF931092850010924C
:1071500084008091A8019091A901009741F00197C6
:107160009093A9018093A801892B09F45D9A8091DD
:10717000AA019091AB01009741F001979093AB0168
:107180008093AA01892B09F4289AE0E0F0E0859128
:1071900094918F5F9F4F49F08091AC019091AD0128
:1071A00001969093AD018093AC01FF91EF919F9177
:1071B0008F912F910F900FBE0F901F90189584E024
:1071C0008093E9000DC08091E8008B778093E80000
:1071D00003C08EB3882351F08091E80082FFF9CF7D
:1071E0008091E80085FFEFCF8091F1000895982FFE
:1071F00083E08093E9008091E80085FD0DC08091D7
:10720000E8008E778093E80003C08EB3882369F08E
:107210008091E80080FFF9CF9093F1005D9884E6BB
:1072200090E09093A9018093A80108954F925F92F6
:107230006F927F928F929F92AF92BF92CF92DF9286
:10724000EF92FF920F931F93CF93DF9384E080938D
:10725000E9008091E80082FF57C2289884E690E018
:107260009093AB018093AA01AADF182F853481F493
:107270008CE49DE19093AD018093AC0107B600FCD6
:10728000FDCFF999FECF81E180935700E89503C0C7
:10729000843519F494DF8DE00DC28C34E1F3803530
:1072A000D1F3843721F484E4A2DF80E003C2813685
:1072B00011F489E5FFC18134B1F481DF182F7FDF3C
:1072C00090E0880F991FAA2797FDA095BA2F312F1C
:1072D000330F20E0442737FD4095542F822B932B0A
:1072E000A42BB52BB8C1803711F483E5E3C18335F6
:1072F00049F4C0E0D1E089917ADF21E0C730D207BC
:10730000D1F7D9C1863521F481E371DF80E3D2C1A1
:10731000833731F487E86BDF85E969DF8EE1CAC125
:107320008536B9F4E0E0F0E093E085E09093570013
:10733000E89507B600FCFDCF80935700E89507B6A7
:1073400000FCFDCFE058FF4FA0E7E030FA0771F7EF
:10735000A2CF823739F4E1E0F0E089E08093570072
:107360008491A8C1863439F4E0E0F0E089E08093AC
:10737000570084919FC18E3439F4E3E0F0E089E056
:1073800080935700849196C1813539F4E2E0F0E0B2
:1073900089E08093570084918DC1823631F489E56C
:1073A00026DF80E024DF80E885C1823419F087364B
:1073B00009F0E5C01092AD011092AC0100DF082F7A
:1073C000FEDEF82EFCDE682E8554823008F071C196
:1073D000902F80E0CF2DD0E0C82BD92B10926F00DA
:1073E000173609F04BC081E180935700E895DD2402
:1073F000CC24C3943FC0E090AE01F090AF01009167
:10740000B0011091B101B6E46B16D9F4ED2DF0E0A6
:10741000EE29FF29E4918E2FEADEDD2081F082E063
:1074200090E0A0E0B0E0E80EF91E0A1F1B1FE092FA
:10743000AE01F092AF010093B0011093B101DC24D2
:1074400018C0D801C701B695A7959795879559D5C6
:10745000CEDE82E090E0A0E0B0E0E80EF91E0A1F68
:107460001B1FE092AE01F092AF010093B0011093A8
:10747000B1012197209709F0BECF7DC08090AE0169
:107480009090AF01A090B001B090B10196E4691660
:1074900009F05DC083E0F40180935700E89507B6DA
:1074A00000FCFDCF54C0F6E46F1661F5772031F192
:1074B000E090AE01F090AF010091B0011091B101E8
:1074C0007EDED82ECC24852D90E08C299D29F701D5
:1074D0000C0140925700E895112482E090E0A0E072
:1074E000B0E0E80EF91E0A1F1B1FE092AE01F092F9
:1074F000AF010093B0011093B10102C060DE582EBD
:10750000742423C0E090AE01F090AF010091B0016F
:107510001091B10116950795F794E79450DE682F06
:10752000C701F7D48091AE019091AF01A091B00155
:10753000B091B1010296A11DB11D8093AE0190934F
:10754000AF01A093B001B093B101219704C05524BD
:10755000772444244394209709F0A5CF96E4691634
:1075600041F485E0F40180935700E89507B600FCEC
:10757000FDCF8DE03CDE82E080936F009CC08334C1
:1075800071F40091AE011091AF0119DE90E021E09D
:10759000F8010C0120935700E89511247CCE833626
:1075A00019F5E090AE01F090AF010091B00110919B
:1075B000B10105DEF701E16090E021E00C012093CC
:1075C0005700E895112482E090E0A0E0B0E0E80EDA
:1075D000F91E0A1F1B1FE092AE01F092AF0100934B
:1075E000B0011093B10157CE8D3661F4E091AE0138
:1075F000F091AF0185E080935700E89507B600FC55
:10760000FDCF49CE823551F4E091AE01F091AF014A
:1076100005911491812FEBDD802F4CC0843421F52E
:10762000E090AE01F090AF010091B0011091B10176
:1076300016950795F794E794C2DD682FC70169D4C2
:107640008091AE019091AF01A091B001B091B101D4
:107650000296A11DB11D8093AE019093AF01A0933E
:10766000B001B093B10117CE843609F5E090AE01B8
:10767000F090AF010091B0011091B101D801C701A4
:10768000B695A795979587953CD4B1DD82E090E0BB
:10769000A0E0B0E0E80EF91E0A1F1B1FE092AE0149
:1076A000F092AF010093B0011093B10104C08B318F
:1076B00011F08FE39CDD83E08093E9009091E80076
:1076C0008091E8008E778093E80095FF04C010C099
:1076D0008EB38823C9F08091E80080FFF9CF8091B4
:1076E000E8008E778093E80003C08EB3882361F0B2
:1076F0008091E80080FFF9CF84E08093E9008091D9
:10770000E8008B778093E800DF91CF911F910F9174
:10771000FF90EF90DF90CF90BF90AF909F908F90B1
:107720007F906F905F904F9008959091B601892F50
:107730008F77813249F58091B7018032A1F0813293
:1077400019F5913A09F58091E800877F8093E80068
:107750008DE091E067E070E00BD28091E8008B77DC
:107760008093E8000895913279F48091E800877F52
:107770008093E8008DE091E067E070E05DD2809159
:10778000E8008E778093E800089582E061EC42E0A3
:10779000B5D083E061E842E1B1D084E060E842E145
:1077A000ADC084B7877F84BF88E10FB6F89480931B
:1077B0006000109260000FBE20E880E090E00FB6FD
:1077C000F89420936100809361000FBE81E085BF33
:1077D00092E095BF3F9A209A559AE1E6F0E0208327
:1077E000108247985D9A289A109289008AEF8093B8
:1077F000880090936F0083E080938100F0C04091F7
:10780000000850910108109201081092000894B7E6
:1078100014BE88E10FB6F894809360001092600067
:107820000FBE292F30E0F901E270F07091FD18C011
:1078300090FF05C0859194918F5F9F4F81F423FF46
:107840000FC08091090190910A014817590741F032
:10785000E0E0F0E0859194918F5F9F4F09F042DC6A
:10786000A0DF78941092AD011092AC010CC0DEDC68
:1078700036D38091AC019091AD0181549F4110F0BD
:107880001092140141DC80911401882381F78091CA
:10789000E00081608093E00025DC80E090E00895C6
:1078A000FA01923049F0933061F09130F9F485E1BA
:1078B00091E022E130E01EC087E291E02EE330E06B
:1078C00019C0882329F485E691E024E030E012C055
:1078D000813029F489E691E022E230E00BC0823069
:1078E00029F48DE891E028E130E004C080E090E0E8
:1078F00020E030E091838083C90108958093E900FE
:107900008091EB0081608093EB001092ED0060931A
:10791000EC004093ED008091EE00881F8827881FBF
:1079200008958091B60188238CF403C08EB3882318
:10793000B1F08091E80082FFF9CF8091E8008B7769
:107940008093E80008958EB3882349F08091E80081
:1079500080FFF9CF8091E8008E778093E80008954A
:10796000EF92FF920F931F9345D04CD008ED10E09B
:10797000F80180818F778083808180688083808117
:107980008F7D808319BC1EBA1092B40180EEE82E60
:10799000F12CF70180818B7F8083F80180818160E9
:1079A000808380E060E042E0A9DFE1EEF0E08081EA
:1079B0008E7F8083E2EEF0E0808181608083808131
:1079C00088608083F70180818E7F8083F8018081C9
:1079D000806180831F910F91FF90EF900895E7EDF4
:1079E000F0E08081816080838AE482BF81E08093BF
:1079F000B501B6CFE8EDF0E080818E7F80831092F4
:107A0000E20008951092DA001092E10008951F92AA
:107A10000F920FB60F9211242F933F934F935F93C2
:107A20006F937F938F939F93AF93BF93EF93FF9346
:107A30008091DA0080FF1BC08091D80080FF17C0C2
:107A40008091DA008E7F8093DA008091D90080FFE8
:107A50000BC080E189BD82E189BD09B400FEFDCF84
:107A600081E08EBB3BD203C019BC1EBA37D28091D5
:107A7000E10080FF17C08091E20080FF13C0809179
:107A8000E2008E7F8093E2008091E200806180932B
:107A9000E2008091D80080628093D80019BC85E014
:107AA0008EBB1CD28091E10084FF2CC08091E2004B
:107AB00084FF28C080E189BD82E189BD09B400FE50
:107AC000FDCF8091D8008F7D8093D8008091E10018
:107AD0008F7E8093E1008091E2008F7E8093E200B0
:107AE0008091E20081608093E2008091B40188235C
:107AF00031F48091E30087FD02C081E001C084E0A1
:107B00008EBBECD18091E10083FF21C08091E20027
:107B100083FF1DC08091E100877F8093E10082E0B8
:107B20008EBB1092B4018091E1008E7F8093E100C2
:107B30008091E2008E7F8093E2008091E20080617C
:107B40008093E20080E060E042E0D8DEC7D1FF91A0
:107B5000EF91BF91AF919F918F917F916F915F91C5
:107B60004F913F912F910F900FBE0F901F9018953E
:107B70009C014091BC015091BD014617570718F474
:107B8000F90190E044C06115710511F0AB01F8CF27
:107B90008091E8008E778093E80040E050E0F0CFDD
:107BA0008EB3882309F444C0853009F443C0809122
:107BB000E80083FF02C081E008958091E80082FD23
:107BC00031C08091E80080FF22C08091F300909145
:107BD000F200782F60E0292F30E0262B372B07C0EA
:107BE00081918093F100415050402F5F3F4F4115EC
:107BF000510519F02830310598F390E0283031050F
:107C000009F491E08091E8008E778093E8004115B7
:107C1000510531F6992321F605C08EB3882341F032
:107C2000853041F08091E80082FFF7CF80E0089531
:107C300082E0089583E008959C016115710529F49F
:107C40008091E8008B778093E800F90126C08EB31D
:107C5000882391F1853091F18091E80083FF02C083
:107C600081E008958091E80082FFF1CF06C0809105
:107C7000F10081936150704059F02091F3008091A0
:107C8000F200322F20E090E0822B932B892B79F7A2
:107C90008091E8008B778093E80061157105B9F653
:107CA00005C08EB3882341F0853041F08091E80013
:107CB00080FFF7CF80E0089582E0089583E0089583
:107CC0000F931F93DF93CF9300D0CDB7DEB7E6EBD2
:107CD000F1E08091F100819381E0EE3BF807C9F774
:107CE00024DD8091E80083FFE4C08091B60190918B
:107CF000B701953009F46DC0963040F4913081F1B0
:107D0000913070F0933009F0D4C02AC0983009F453
:107D1000A3C0993009F4B2C0963009F0CAC07CC043
:107D2000803809F4C6C0823809F0C3C08091BA0116
:107D300087708093E9008091EB001092E900209118
:107D4000E800277F2093E80090E025E0969587954E
:107D50002A95E1F781708093F1001092F10087C0BD
:107D6000882319F0823009F0A4C08F71823009F0A5
:107D7000A0C08091B801882331F52091BA01277005
:107D800009F497C02093E9008091EB0080FF1BC0AD
:107D9000933021F48091EB00806213C08091EB005E
:107DA00080618093EB0081E090E002C0880F991F12
:107DB0002A95E2F78093EA001092EA008091EB00A6
:107DC00088608093EB001092E9008091E800877F43
:107DD00051C0882309F06DC01091B8011F770FB70B
:107DE000F8948091E800877F8093E8009ADD809185
:107DF000E80080FFFCCF8091E3008078812B8093A6
:107E0000E30080688093E300112311F482E001C055
:107E100083E08EBB0FBF4DC08058823008F049C050
:107E20008091B8019091B9016091BA01AE014F5FA4
:107E30005F4F36DDBC01009709F43BC08091E8003C
:107E4000877F8093E80089819A8192DE8091E800A3
:107E50008B778093E8002DC0803859F58091E80039
:107E6000877F8093E8008091B4018093F100809136
:107E7000E8008E778093E80054DD1BC08823C9F4A6
:107E80009091B8019230A8F48091E800877F8093A8
:107E9000E8009093B40145DD8091B401882331F46A
:107EA0008091E30087FD02C081E001C084E08EBBC9
:107EB0006CDC8091E80083FF0AC08091EB00806257
:107EC0008093EB008091E800877F8093E8000F901B
:107ED0000F90CF91DF911F910F91089508951F93F7
:107EE0008EB3882361F01091E9001092E90080912F
:107EF000E80083FF01C0E4DE17701093E9001F91D2
:107F00000895F999FECF92BD81BDF89A992780B561
:107F10000895262FF999FECF1FBA92BD81BD20BDCD
:107F20000FB6F894FA9AF99A0FBE01960895F8944C
:107F3000FFCF4341544552494E4100777700080036
:107F400000000000000801120110010200000841B9
:107F500023360001000201000109023E0002010077
:107F60008032090400000102020100052400100112
:107F7000042402040524060001070582030800FF0B
:107F800009040100020A00000007050402100001B4
:107F90000705830210000104030904220341007253
:107FA000006400750069006E006F0020004C0065E1
:107FB000006F006E006100720064006F0000001826
:107FC00003410072006400750069006E006F0020BC
:107FD000004C004C004300000000FFFFFFFFFFFFCC
:107FE000FFFFFFFFFFFFFFFFFFFFFFFFFFFFFFFFA1
:107FF000FFFFFFFFFFFFFFFFFFFFFFFFFFFFFFFF91
:00000001FF
